{
  "contractName": "ERC20Factory",
  "abi": [
    {
      "inputs": [
        {
          "internalType": "string",
          "name": "__name",
          "type": "string"
        },
        {
          "internalType": "string",
          "name": "__symbol",
          "type": "string"
        },
        {
          "internalType": "uint8",
          "name": "__decimals",
          "type": "uint8"
        },
        {
          "internalType": "uint256",
          "name": "__totalSupply",
          "type": "uint256"
        },
        {
          "internalType": "bool",
          "name": "__minable",
          "type": "bool"
        }
      ],
      "stateMutability": "nonpayable",
      "type": "constructor"
    },
    {
      "anonymous": false,
      "inputs": [
        {
          "indexed": false,
          "internalType": "address",
          "name": "_user",
          "type": "address"
        }
      ],
      "name": "AddedBlackList",
      "type": "event"
    },
    {
      "anonymous": false,
      "inputs": [
        {
          "indexed": true,
          "internalType": "address",
          "name": "previousAdmin",
          "type": "address"
        },
        {
          "indexed": true,
          "internalType": "address",
          "name": "newAdmin",
          "type": "address"
        }
      ],
      "name": "AdministratorTransferred",
      "type": "event"
    },
    {
      "anonymous": false,
      "inputs": [
        {
          "indexed": true,
          "internalType": "address",
          "name": "owner",
          "type": "address"
        },
        {
          "indexed": true,
          "internalType": "address",
          "name": "spender",
          "type": "address"
        },
        {
          "indexed": false,
          "internalType": "uint256",
          "name": "value",
          "type": "uint256"
        }
      ],
      "name": "Approval",
      "type": "event"
    },
    {
      "anonymous": false,
      "inputs": [
        {
          "indexed": true,
          "internalType": "address",
          "name": "account",
          "type": "address"
        },
        {
          "indexed": false,
          "internalType": "uint256",
          "name": "value",
          "type": "uint256"
        }
      ],
      "name": "Burn",
      "type": "event"
    },
    {
      "anonymous": false,
      "inputs": [
        {
          "indexed": false,
          "internalType": "address",
          "name": "_blackListedUser",
          "type": "address"
        },
        {
          "indexed": false,
          "internalType": "uint256",
          "name": "_balance",
          "type": "uint256"
        }
      ],
      "name": "DestroyedBlackFunds",
      "type": "event"
    },
    {
      "anonymous": false,
      "inputs": [
        {
          "indexed": true,
          "internalType": "address",
          "name": "account",
          "type": "address"
        },
        {
          "indexed": false,
          "internalType": "uint256",
          "name": "value",
          "type": "uint256"
        }
      ],
      "name": "Mint",
      "type": "event"
    },
    {
      "anonymous": false,
      "inputs": [
        {
          "indexed": true,
          "internalType": "address",
          "name": "previousOwner",
          "type": "address"
        },
        {
          "indexed": true,
          "internalType": "address",
          "name": "newOwner",
          "type": "address"
        }
      ],
      "name": "OwnershipTransferred",
      "type": "event"
    },
    {
      "anonymous": false,
      "inputs": [
        {
          "indexed": false,
          "internalType": "address",
          "name": "_user",
          "type": "address"
        }
      ],
      "name": "RemovedBlackList",
      "type": "event"
    },
    {
      "anonymous": false,
      "inputs": [
        {
          "indexed": true,
          "internalType": "address",
          "name": "from",
          "type": "address"
        },
        {
          "indexed": true,
          "internalType": "address",
          "name": "to",
          "type": "address"
        },
        {
          "indexed": false,
          "internalType": "uint256",
          "name": "value",
          "type": "uint256"
        }
      ],
      "name": "Transfer",
      "type": "event"
    },
    {
      "anonymous": false,
      "inputs": [
        {
          "indexed": false,
          "internalType": "bytes",
          "name": "data",
          "type": "bytes"
        }
      ],
      "name": "TransferData",
      "type": "event"
    },
    {
      "stateMutability": "nonpayable",
      "type": "fallback"
    },
    {
      "inputs": [],
      "name": "admin",
      "outputs": [
        {
          "internalType": "address",
          "name": "",
          "type": "address"
        }
      ],
      "stateMutability": "view",
      "type": "function"
    },
    {
      "inputs": [],
      "name": "owner",
      "outputs": [
        {
          "internalType": "address",
          "name": "",
          "type": "address"
        }
      ],
      "stateMutability": "view",
      "type": "function"
    },
    {
      "inputs": [],
      "name": "renounceOwnership",
      "outputs": [],
      "stateMutability": "nonpayable",
      "type": "function"
    },
    {
      "inputs": [
        {
          "internalType": "address",
          "name": "newAdmin",
          "type": "address"
        }
      ],
      "name": "transferAdministrator",
      "outputs": [],
      "stateMutability": "nonpayable",
      "type": "function"
    },
    {
      "inputs": [
        {
          "internalType": "address",
          "name": "newOwner",
          "type": "address"
        }
      ],
      "name": "transferOwnership",
      "outputs": [],
      "stateMutability": "nonpayable",
      "type": "function"
    },
    {
      "inputs": [],
      "name": "name",
      "outputs": [
        {
          "internalType": "string",
          "name": "",
          "type": "string"
        }
      ],
      "stateMutability": "view",
      "type": "function"
    },
    {
      "inputs": [],
      "name": "symbol",
      "outputs": [
        {
          "internalType": "string",
          "name": "",
          "type": "string"
        }
      ],
      "stateMutability": "view",
      "type": "function"
    },
    {
      "inputs": [],
      "name": "decimals",
      "outputs": [
        {
          "internalType": "uint8",
          "name": "",
          "type": "uint8"
        }
      ],
      "stateMutability": "view",
      "type": "function"
    },
    {
      "inputs": [],
      "name": "totalSupply",
      "outputs": [
        {
          "internalType": "uint256",
          "name": "",
          "type": "uint256"
        }
      ],
      "stateMutability": "view",
      "type": "function"
    },
    {
      "inputs": [
        {
          "internalType": "address",
          "name": "_who",
          "type": "address"
        }
      ],
      "name": "balanceOf",
      "outputs": [
        {
          "internalType": "uint256",
          "name": "",
          "type": "uint256"
        }
      ],
      "stateMutability": "view",
      "type": "function"
    },
    {
      "inputs": [
        {
          "internalType": "address",
          "name": "_owner",
          "type": "address"
        },
        {
          "internalType": "address",
          "name": "_spender",
          "type": "address"
        }
      ],
      "name": "allowance",
      "outputs": [
        {
          "internalType": "uint256",
          "name": "",
          "type": "uint256"
        }
      ],
      "stateMutability": "view",
      "type": "function"
    },
    {
      "inputs": [],
      "name": "standard",
      "outputs": [
        {
          "internalType": "string",
          "name": "",
          "type": "string"
        }
      ],
      "stateMutability": "pure",
      "type": "function"
    },
    {
      "inputs": [
        {
          "internalType": "address",
          "name": "_spender",
          "type": "address"
        },
        {
          "internalType": "uint256",
          "name": "_value",
          "type": "uint256"
        }
      ],
      "name": "approve",
      "outputs": [
        {
          "internalType": "bool",
          "name": "",
          "type": "bool"
        }
      ],
      "stateMutability": "nonpayable",
      "type": "function"
    },
    {
      "inputs": [
        {
          "internalType": "address",
          "name": "_to",
          "type": "address"
        },
        {
          "internalType": "uint256",
          "name": "_value",
          "type": "uint256"
        }
      ],
      "name": "transfer",
      "outputs": [
        {
          "internalType": "bool",
          "name": "",
          "type": "bool"
        }
      ],
      "stateMutability": "nonpayable",
      "type": "function"
    },
    {
      "inputs": [
        {
          "internalType": "address",
          "name": "_to",
          "type": "address"
        },
        {
          "internalType": "uint256",
          "name": "_value",
          "type": "uint256"
        },
        {
          "internalType": "bytes",
          "name": "_data",
          "type": "bytes"
        }
      ],
      "name": "transfer",
      "outputs": [
        {
          "internalType": "bool",
          "name": "",
          "type": "bool"
        }
      ],
      "stateMutability": "nonpayable",
      "type": "function"
    },
    {
      "inputs": [
        {
          "internalType": "address",
          "name": "_from",
          "type": "address"
        },
        {
          "internalType": "address",
          "name": "_to",
          "type": "address"
        },
        {
          "internalType": "uint256",
          "name": "_value",
          "type": "uint256"
        }
      ],
      "name": "transferFrom",
      "outputs": [
        {
          "internalType": "bool",
          "name": "",
          "type": "bool"
        }
      ],
      "stateMutability": "nonpayable",
      "type": "function"
    },
    {
      "inputs": [
        {
          "internalType": "address",
          "name": "_spender",
          "type": "address"
        },
        {
          "internalType": "uint256",
          "name": "_addedValue",
          "type": "uint256"
        }
      ],
      "name": "increaseAllowance",
      "outputs": [
        {
          "internalType": "bool",
          "name": "",
          "type": "bool"
        }
      ],
      "stateMutability": "nonpayable",
      "type": "function"
    },
    {
      "inputs": [
        {
          "internalType": "address",
          "name": "_spender",
          "type": "address"
        },
        {
          "internalType": "uint256",
          "name": "_subtractedValue",
          "type": "uint256"
        }
      ],
      "name": "decreaseAllowance",
      "outputs": [
        {
          "internalType": "bool",
          "name": "",
          "type": "bool"
        }
      ],
      "stateMutability": "nonpayable",
      "type": "function"
    },
    {
      "inputs": [
        {
          "internalType": "address",
          "name": "account",
          "type": "address"
        },
        {
          "internalType": "uint256",
          "name": "value",
          "type": "uint256"
        }
      ],
      "name": "mint",
      "outputs": [
        {
          "internalType": "bool",
          "name": "",
          "type": "bool"
        }
      ],
      "stateMutability": "nonpayable",
      "type": "function"
    },
    {
      "inputs": [
        {
          "internalType": "address",
          "name": "account",
          "type": "address"
        },
        {
          "internalType": "uint256",
          "name": "value",
          "type": "uint256"
        }
      ],
      "name": "burn",
      "outputs": [
        {
          "internalType": "bool",
          "name": "",
          "type": "bool"
        }
      ],
      "stateMutability": "nonpayable",
      "type": "function"
    },
    {
      "inputs": [
        {
          "internalType": "address",
          "name": "_maker",
          "type": "address"
        }
      ],
      "name": "getBlackListStatus",
      "outputs": [
        {
          "internalType": "bool",
          "name": "",
          "type": "bool"
        }
      ],
      "stateMutability": "view",
      "type": "function"
    },
    {
      "inputs": [
        {
          "internalType": "address",
          "name": "_evilUser",
          "type": "address"
        }
      ],
      "name": "addBlackList",
      "outputs": [],
      "stateMutability": "nonpayable",
      "type": "function"
    },
    {
      "inputs": [
        {
          "internalType": "address",
          "name": "_clearedUser",
          "type": "address"
        }
      ],
      "name": "removeBlackList",
      "outputs": [],
      "stateMutability": "nonpayable",
      "type": "function"
    },
    {
      "inputs": [],
      "name": "kill",
      "outputs": [],
      "stateMutability": "nonpayable",
      "type": "function"
    }
  ],
  "bytecode": "0x60806040523480156200001157600080fd5b5060405162001b8b38038062001b8b83398101604081905262000034916200035c565b60008054336001600160a01b0319918216811783556001805490921681179091556040519091907f8be0079c531659141344cd1fd0a4f28419497f9722a3daafe3b4186f6b6457e0908290a36001546040516001600160a01b03909116906000907f399b55200f7f639a63d76efe3dcfa9156ce367058d6b673041b84a628885f5a7908290a38451620000cf906008906020880190620001e9565b508351620000e5906009906020870190620001e9565b506005805461ff00191661010060ff8616908102919091179091556200010d90600a6200051a565b6200011990836200052f565b6007556005805460ff191682151590811790915560ff161562000141576000600655620001de565b600754600681905560026000620001606000546001600160a01b031690565b6001600160a01b031681526020810191909152604001600020556200018d6000546001600160a01b031690565b6001600160a01b031660006001600160a01b03167fddf252ad1be2c89b69c2b068fc378daa952ba7f163c4a11628f55a4df523b3ef600654604051620001d591815260200190565b60405180910390a35b50505050506200058d565b828054620001f79062000551565b90600052602060002090601f0160209004810192826200021b576000855562000266565b82601f106200023657805160ff191683800117855562000266565b8280016001018555821562000266579182015b828111156200026657825182559160200191906001019062000249565b506200027492915062000278565b5090565b5b8082111562000274576000815560010162000279565b634e487b7160e01b600052604160045260246000fd5b600082601f830112620002b757600080fd5b81516001600160401b0380821115620002d457620002d46200028f565b604051601f8301601f19908116603f01168101908282118183101715620002ff57620002ff6200028f565b816040528381526020925086838588010111156200031c57600080fd5b600091505b8382101562000340578582018301518183018401529082019062000321565b83821115620003525760008385830101525b9695505050505050565b600080600080600060a086880312156200037557600080fd5b85516001600160401b03808211156200038d57600080fd5b6200039b89838a01620002a5565b96506020880151915080821115620003b257600080fd5b50620003c188828901620002a5565b945050604086015160ff81168114620003d957600080fd5b6060870151608088015191945092508015158114620003f757600080fd5b809150509295509295909350565b634e487b7160e01b600052601160045260246000fd5b600181815b808511156200045c57816000190482111562000440576200044062000405565b808516156200044e57918102915b93841c939080029062000420565b509250929050565b600082620004755750600162000514565b81620004845750600062000514565b81600181146200049d5760028114620004a857620004c8565b600191505062000514565b60ff841115620004bc57620004bc62000405565b50506001821b62000514565b5060208310610133831016604e8410600b8410161715620004ed575081810a62000514565b620004f983836200041b565b806000190482111562000510576200051062000405565b0290505b92915050565b600062000528838362000464565b9392505050565b60008160001904831182151516156200054c576200054c62000405565b500290565b600181811c908216806200056657607f821691505b6020821081036200058757634e487b7160e01b600052602260045260246000fd5b50919050565b6115ee806200059d6000396000f3fe608060405234801561001057600080fd5b50600436106101585760003560e01c8063715018a6116100c3578063be45fd621161007c578063be45fd6214610346578063c648a3a214610359578063dd62ed3e1461036c578063e4997dc5146103a5578063f2fde38b146103b8578063f851a440146103cb57610158565b8063715018a6146102d85780638da5cb5b146102e057806395d89b41146103055780639dc29fac1461030d578063a457c2d714610320578063a9059cbb1461033357610158565b80633950935111610115578063395093511461023357806340c10f191461024657806341c0e1b51461025957806359bf1abe146102615780635a3b7e421461028d57806370a08231146102af57610158565b806306fdde031461019d578063095ea7b3146101bb5780630ecb93c0146101de57806318160ddd146101f157806323b872dd14610203578063313ce56714610216575b60405162461bcd60e51b81526020600482015260136024820152723732bb32b9103932b1b2b4bb3290333ab7321760691b60448201526064015b60405180910390fd5b005b6101a56103dc565b6040516101b29190611220565b60405180910390f35b6101ce6101c9366004611291565b61046e565b60405190151581526020016101b2565b61019b6101ec3660046112bb565b61057c565b6006545b6040519081526020016101b2565b6101ce6102113660046112d6565b610616565b600554610100900460ff1660405160ff90911681526020016101b2565b6101ce610241366004611291565b610712565b6101ce610254366004611291565b6107eb565b61019b6109bc565b6101ce61026f3660046112bb565b6001600160a01b031660009081526004602052604090205460ff1690565b60408051808201909152600681526565726332323360d01b60208201526101a5565b6101f56102bd3660046112bb565b6001600160a01b031660009081526002602052604090205490565b61019b6109d3565b6000546001600160a01b03165b6040516001600160a01b0390911681526020016101b2565b6101a5610a77565b6101ce61031b366004611291565b610a86565b6101ce61032e366004611291565b610c4b565b6101ce610341366004611291565b610ccd565b6101ce610354366004611312565b610d10565b61019b6103673660046112bb565b610dd6565b6101f561037a366004611399565b6001600160a01b03918216600090815260036020908152604080832093909416825291909152205490565b61019b6103b33660046112bb565b610ede565b61019b6103c63660046112bb565b610f6e565b6001546001600160a01b03166102ed565b6060600880546103eb906113cc565b80601f0160208091040260200160405190810160405280929190818152602001828054610417906113cc565b80156104645780601f1061043957610100808354040283529160200191610464565b820191906000526020600020905b81548152906001019060200180831161044757829003601f168201915b5050505050905090565b6000604061047d81600461141c565b36101561049c5760405162461bcd60e51b815260040161019290611434565b8215806104ca57503360009081526003602090815260408083206001600160a01b0388168452909152902054155b6105165760405162461bcd60e51b815260206004820152601a60248201527f636865636b2076616c7565206e6f7420657175616c207a65726f0000000000006044820152606401610192565b3360008181526003602090815260408083206001600160a01b03891680855290835292819020879055518681529192917f8c5be1e5ebec7d5bd14f71427d1e84f3dd0314c0f7b2291e5b200ac8c7c3b92591015b60405180910390a35060019392505050565b6000546001600160a01b031633148061059f57506001546001600160a01b031633145b6105bb5760405162461bcd60e51b815260040161019290611462565b6001600160a01b038116600081815260046020908152604091829020805460ff1916600117905590519182527f42e160154868087d6bfdc0ca23d96a1c1cfa32f1b72ba9ba27b69b98a0d819dc91015b60405180910390a150565b6000606061062581600461141c565b3610156106445760405162461bcd60e51b815260040161019290611434565b6001600160a01b03851660009081526003602090815260408083203384529091529020548311156106aa5760405162461bcd60e51b815260206004820152601060248201526f4e6f7420656e6f7567682076616c756560801b6044820152606401610192565b6001600160a01b03851660009081526003602090815260408083203384529091529020546106d89084611088565b6001600160a01b03861660009081526003602090815260408083203384529091529020556107078585856110ab565b506001949350505050565b6000604061072181600461141c565b3610156107405760405162461bcd60e51b815260040161019290611434565b6001600160a01b0384166107665760405162461bcd60e51b8152600401610192906114ad565b3360009081526003602090815260408083206001600160a01b03881684529091529020546107949084611201565b3360008181526003602090815260408083206001600160a01b038a16808552908352928190208590555193845290927f8c5be1e5ebec7d5bd14f71427d1e84f3dd0314c0f7b2291e5b200ac8c7c3b925910161056a565b600080546001600160a01b031633148061080f57506001546001600160a01b031633145b61082b5760405162461bcd60e51b815260040161019290611462565b604061083881600461141c565b3610156108575760405162461bcd60e51b815260040161019290611434565b6001600160a01b03841661087d5760405162461bcd60e51b8152600401610192906114ad565b60055460ff166108c65760405162461bcd60e51b81526020600482015260146024820152736d696e61626c65206d757374206265207472756560601b6044820152606401610192565b6007546006546108d69085611201565b11156108f45760405162461bcd60e51b8152600401610192906114e4565b6006546109019084611201565b6006556001600160a01b0384166000908152600260205260409020546109279084611201565b6001600160a01b038516600081815260026020526040908190209290925590517f0f6798a560793a54c3bcfe86a93cde1e73087d944c0ea20544137d4121396885906109769086815260200190565b60405180910390a26040518381526001600160a01b038516906000907fddf252ad1be2c89b69c2b068fc378daa952ba7f163c4a11628f55a4df523b3ef9060200161056a565b6000546001600160a01b031633036109d15733ff5b565b6000546001600160a01b03163314610a2d5760405162461bcd60e51b815260206004820152601a60248201527f6f6e6c79206f776e65722063616e206d6f6469667920746869730000000000006044820152606401610192565b600080546040516001600160a01b03909116907f8be0079c531659141344cd1fd0a4f28419497f9722a3daafe3b4186f6b6457e0908390a3600080546001600160a01b0319169055565b6060600980546103eb906113cc565b600080546001600160a01b0316331480610aaa57506001546001600160a01b031633145b610ac65760405162461bcd60e51b815260040161019290611462565b6040610ad381600461141c565b361015610af25760405162461bcd60e51b815260040161019290611434565b6001600160a01b038416610b185760405162461bcd60e51b8152600401610192906114ad565b60055460ff16610b615760405162461bcd60e51b81526020600482015260146024820152736d696e61626c65206d757374206265207472756560601b6044820152606401610192565b826006541015610b835760405162461bcd60e51b8152600401610192906114e4565b600654610b909084611088565b6006556001600160a01b038416600090815260026020526040902054610bb69084611088565b6001600160a01b038516600081815260026020526040908190209290925590517fcc16f5dbb4873280815c1ee09dbd06736cffcc184412cf7a71a0fdb75d397ca590610c059086815260200190565b60405180910390a26040518381526000906001600160a01b038616907fddf252ad1be2c89b69c2b068fc378daa952ba7f163c4a11628f55a4df523b3ef9060200161056a565b60006040610c5a81600461141c565b361015610c795760405162461bcd60e51b815260040161019290611434565b6001600160a01b038416610c9f5760405162461bcd60e51b8152600401610192906114ad565b3360009081526003602090815260408083206001600160a01b03881684529091529020546107949084611088565b60006040610cdc81600461141c565b361015610cfb5760405162461bcd60e51b815260040161019290611434565b610d063385856110ab565b5060019392505050565b6000610d1d3386866110ab565b6001600160a01b0385163b15610d92576040516344a1f60160e11b81526001600160a01b03861690638943ec0290610d5f90339088908890889060040161153d565b600060405180830381600087803b158015610d7957600080fd5b505af1158015610d8d573d6000803e3d6000fd5b505050505b7f3ba9136826ac751de05d770d8d34fa4440ada49a5fb0e9aa1678aece66dad9768383604051610dc392919061156f565b60405180910390a1506001949350505050565b6000546001600160a01b0316331480610df957506001546001600160a01b031633145b610e155760405162461bcd60e51b815260040161019290611462565b6001600160a01b038116610e825760405162461bcd60e51b815260206004820152602e60248201527f43616e206e6f74207472616e736665722061646d696e6973747261746f72207460448201526d6f207a65726f206164647265737360901b6064820152608401610192565b6001546040516001600160a01b038084169216907f399b55200f7f639a63d76efe3dcfa9156ce367058d6b673041b84a628885f5a790600090a3600180546001600160a01b0319166001600160a01b0392909216919091179055565b6000546001600160a01b0316331480610f0157506001546001600160a01b031633145b610f1d5760405162461bcd60e51b815260040161019290611462565b6001600160a01b038116600081815260046020908152604091829020805460ff1916905590519182527fd7e9ec6e6ecd65492dce6bf513cd6867560d49544421d0783ddf06e76c24470c910161060b565b6000546001600160a01b03163314610fc85760405162461bcd60e51b815260206004820152601a60248201527f6f6e6c79206f776e65722063616e206d6f6469667920746869730000000000006044820152606401610192565b6001600160a01b03811661102d5760405162461bcd60e51b815260206004820152602660248201527f43616e206e6f74207472616e73666572206f776e657220746f207a65726f206160448201526564647265737360d01b6064820152608401610192565b600080546040516001600160a01b03808516939216917f8be0079c531659141344cd1fd0a4f28419497f9722a3daafe3b4186f6b6457e091a3600080546001600160a01b0319166001600160a01b0392909216919091179055565b60008282111561109a5761109a61158b565b6110a482846115a1565b9392505050565b6001600160a01b0382166110d15760405162461bcd60e51b8152600401610192906114ad565b6007548111156110f35760405162461bcd60e51b8152600401610192906114e4565b6001600160a01b03831660009081526002602052604090205481111561114e5760405162461bcd60e51b815260206004820152601060248201526f4e6f7420656e6f7567682076616c756560801b6044820152606401610192565b6001600160a01b0383166000908152600260205260409020546111719082611088565b6001600160a01b0380851660009081526002602052604080822093909355908416815220546111a09082611201565b6001600160a01b0380841660008181526002602052604090819020939093559151908516907fddf252ad1be2c89b69c2b068fc378daa952ba7f163c4a11628f55a4df523b3ef906111f49085815260200190565b60405180910390a3505050565b60008061120e838561141c565b9050838110156110a4576110a461158b565b600060208083528351808285015260005b8181101561124d57858101830151858201604001528201611231565b8181111561125f576000604083870101525b50601f01601f1916929092016040019392505050565b80356001600160a01b038116811461128c57600080fd5b919050565b600080604083850312156112a457600080fd5b6112ad83611275565b946020939093013593505050565b6000602082840312156112cd57600080fd5b6110a482611275565b6000806000606084860312156112eb57600080fd5b6112f484611275565b925061130260208501611275565b9150604084013590509250925092565b6000806000806060858703121561132857600080fd5b61133185611275565b935060208501359250604085013567ffffffffffffffff8082111561135557600080fd5b818701915087601f83011261136957600080fd5b81358181111561137857600080fd5b88602082850101111561138a57600080fd5b95989497505060200194505050565b600080604083850312156113ac57600080fd5b6113b583611275565b91506113c360208401611275565b90509250929050565b600181811c908216806113e057607f821691505b60208210810361140057634e487b7160e01b600052602260045260246000fd5b50919050565b634e487b7160e01b600052601160045260246000fd5b6000821982111561142f5761142f611406565b500190565b6020808252601490820152731c185e5b1bd859081cda5e99481a5b9d985a5b1960621b604082015260600190565b6020808252602b908201527f6f6e6c79206f776e6572206f722061646d696e6973747261746f722063616e2060408201526a6d6f64696679207468697360a81b606082015260800190565b6020808252601c908201527f63616e206e6f742073656e6420746f207a65726f206163636f756e7400000000604082015260600190565b6020808252601690820152754d6f7265207468616e20746f74616c20737570706c7960501b604082015260600190565b81835281816020850137506000828201602090810191909152601f909101601f19169091010190565b60018060a01b0385168152836020820152606060408201526000611565606083018486611514565b9695505050505050565b602081526000611583602083018486611514565b949350505050565b634e487b7160e01b600052600160045260246000fd5b6000828210156115b3576115b3611406565b50039056fea264697066735822122025aab2509dd6df81a7029192a2908869cc6c8eee2595fa52c8b6a4738a0236b064736f6c634300080d0033",
  "immutableReferences": {},
  "source": "// SPDX-License-Identifier: MIT\npragma solidity >=0.8.0 <0.9.0;\n\nimport \"../math/SafeMath.sol\";\nimport \"../utils/AddressUtils.sol\";\nimport \"../utils/Payload.sol\";\nimport \"../owner/Administrative.sol\";\nimport \"../interface/IERC20Extended.sol\";\nimport \"../interface/IBlacklist.sol\";\nimport \"../interface/IERC223.sol\";\nimport \"../interface/IERC223Recipient.sol\";\n\n/**\n * ERC 20 token\n * erc20 factory contract, pass by name, total supply, decimals, minable parameters when create\n * fixed total supply when minable is false\n * if minable is true, totalSupply is up limit when create, and totalSupply function return real amount.\n * support erc223 standard, avoid risk of approve function, but need other contract support\n * https://github.com/ethereum/EIPs/issues/20\n * https://github.com/ethereum/EIPs/issues/223\n */\ncontract ERC20Factory is Administrative, IERC20Extended, IERC223, IBlacklist, Payload {\n  using SafeMath for uint256;\n  using AddressUtils for address;\n\n  mapping(address => uint256) _balances;\n\n  mapping(address => mapping(address => uint256)) _allowed;\n\n  mapping (address => bool) _isBlackListed;\n\n  bool _minable;\n  uint8 private _decimals;\n  uint256 private _totalSupply;\n  uint256 private _maxSupply;\n  string private _name;\n  string private _symbol;\n\n  //constructor\n  constructor(\n    string memory __name,\n    string memory __symbol,\n    uint8 __decimals,\n    uint256 __totalSupply,\n    bool __minable\n  ) Administrative() {\n    _name = __name;\n    _symbol = __symbol;\n    _decimals = __decimals;\n    _maxSupply = __totalSupply * 10**uint256(__decimals);\n    _minable = __minable;\n\n    if (_minable) {\n      _totalSupply = 0;\n    } else {\n      // all token send to owner when create\n      _totalSupply = _maxSupply;\n      _balances[owner()] = _totalSupply;\n      emit Transfer(address(0), owner(), _totalSupply);\n    }\n  }\n\n  function name() public override view returns (string memory) {\n    return _name;\n  }\n\n  function symbol() public override view returns (string memory) {\n    return _symbol;\n  }\n\n  /**\n  NOTE: Not all erc20 followed uint8, for example, USDT is uint256, conversion is required\n  */\n  function decimals() public override view returns (uint8) {\n    return _decimals;\n  }\n\n  function totalSupply() public override view returns (uint256) {\n    return _totalSupply;\n  }\n\n  function balanceOf(address _who) public override view returns (uint256) {\n    return _balances[_who];\n  }\n\n  function allowance(address _owner, address _spender)\n    public\n    override view\n    returns (uint256)\n  {\n    return _allowed[_owner][_spender];\n  }\n\n  function standard() public override pure returns (string memory) {\n    return \"erc223\";\n  }\n\n  function approve(address _spender, uint256 _value)\n    public override \n    onlyPayloadSize(2 * 32)\n    returns (bool)\n  {\n    // Check the set allowable quantity to prevent re-entry and modification\n    require(\n      (_value == 0) || (_allowed[msg.sender][_spender] == 0),\n      \"check value not equal zero\"\n    );\n\n    _allowed[msg.sender][_spender] = _value;\n    emit Approval(msg.sender, _spender, _value);\n\n    return true;\n  }\n\n  function _transfer(\n    address from,\n    address to,\n    uint256 value\n  ) internal {\n    require(!to.isZeroAddress(), \"can not send to zero account\");\n    require(value <= _maxSupply, \"More than total supply\");\n    require(_balances[from] >= value, \"Not enough value\");\n\n    _balances[from] = _balances[from].sub(value);\n    _balances[to] = _balances[to].add(value);\n\n    emit Transfer(from, to, value);\n  }\n\n  function transfer(address _to, uint256 _value)\n    public \n    onlyPayloadSize(2 * 32)\n    returns (bool)\n  {\n    _transfer(msg.sender, _to, _value);\n    return true;\n  }\n\n  // erc223, allow transfer with data\n  function transfer(address _to, uint256 _value, bytes calldata _data) \n    public \n    returns (bool)\n  {\n    _transfer(msg.sender, _to, _value);\n\n    if(_to.isContract()) {\n      IERC223Recipient(_to).tokenReceived(msg.sender, _value, _data);\n    }\n\n    emit TransferData(_data);\n\n    return true;\n  }\n\n  function transferFrom(\n    address _from,\n    address _to,\n    uint256 _value\n  ) public override onlyPayloadSize(3 * 32) returns (bool) {\n    require(_allowed[_from][msg.sender] >= _value, \"Not enough value\");\n\n    _allowed[_from][msg.sender] = _allowed[_from][msg.sender].sub(_value);\n    _transfer(_from, _to, _value);\n\n    return true;\n  }\n\n  function increaseAllowance(address _spender, uint256 _addedValue)\n    public override \n    onlyPayloadSize(2 * 32)\n    returns (bool)\n  {\n    require(!_spender.isZeroAddress(), \"can not send to zero account\");\n\n    _allowed[msg.sender][_spender] = _allowed[msg.sender][_spender].add(\n      _addedValue\n    );\n    emit Approval(msg.sender, _spender, _allowed[msg.sender][_spender]);\n\n    return true;\n  }\n\n  function decreaseAllowance(address _spender, uint256 _subtractedValue)\n    public override \n    onlyPayloadSize(2 * 32)\n    returns (bool)\n  {\n    require(!_spender.isZeroAddress(), \"can not send to zero account\");\n\n    _allowed[msg.sender][_spender] = _allowed[msg.sender][_spender].sub(\n      _subtractedValue\n    );\n    emit Approval(msg.sender, _spender, _allowed[msg.sender][_spender]);\n\n    return true;\n  }\n\n  function mint(address account, uint256 value)\n    public override \n    onlyPrivileged\n    onlyPayloadSize(2 * 32)\n    returns (bool)\n  {\n    require(!account.isZeroAddress(), \"can not send to zero account\");\n    require(_minable, \"minable must be true\");\n    require(_totalSupply.add(value) <= _maxSupply, \"More than total supply\");\n\n    _totalSupply = _totalSupply.add(value);\n    _balances[account] = _balances[account].add(value);\n\n    emit Mint(account, value);\n    emit Transfer(address(0), account, value);\n\n    return true;\n  }\n\n  function burn(address account, uint256 value)\n    public override \n    onlyPrivileged\n    onlyPayloadSize(2 * 32)\n    returns (bool)\n  {\n    require(!account.isZeroAddress(), \"can not send to zero account\");\n    require(_minable, \"minable must be true\");\n    require(_totalSupply >= value, \"More than total supply\");\n\n    _totalSupply = _totalSupply.sub(value);\n    _balances[account] = _balances[account].sub(value);\n\n    emit Burn(account, value);\n    emit Transfer(account, address(0), value);\n\n    return true;\n  }\n\n  // blacklist related\n  function getBlackListStatus(address _maker) public override view returns (bool) {\n    return _isBlackListed[_maker];\n  }\n\n  function addBlackList (address _evilUser) public override onlyPrivileged {\n    _isBlackListed[_evilUser] = true;\n    emit AddedBlackList(_evilUser);\n  }\n\n  function removeBlackList (address _clearedUser) public override onlyPrivileged {\n    _isBlackListed[_clearedUser] = false;\n    emit RemovedBlackList(_clearedUser);\n  }\n\n  // fallback function\n  fallback() external {\n    require(false, \"never receive fund.\");\n  }\n\n  // only owner can kill\n  function kill() public {\n    if (msg.sender == owner()) selfdestruct(payable(msg.sender));\n  }\n}\n",
  "sourcePath": "/Users/chtian/Documents/01_work/01_develope/jcc/CCDAO/contract/contracts/erc/ERC20Factory.sol",
  "compiler": {
    "name": "solc",
    "version": "0.8.13+commit.abaa5c0e.Emscripten.clang"
  },
  "schemaVersion": "3.4.6",
  "updatedAt": "2022-04-07T17:22:06.041Z",
  "devdoc": {
    "kind": "dev",
    "methods": {
      "renounceOwnership()": {
        "details": ""
      }
    },
    "version": 1
  },
  "userdoc": {
    "kind": "user",
    "methods": {
      "decimals()": {
        "notice": "NOTE: Not all erc20 followed uint8, for example, USDT is uint256, conversion is required"
      }
    },
    "notice": "ERC 20 token erc20 factory contract, pass by name, total supply, decimals, minable parameters when create fixed total supply when minable is false if minable is true, totalSupply is up limit when create, and totalSupply function return real amount. support erc223 standard, avoid risk of approve function, but need other contract support https://github.com/ethereum/EIPs/issues/20 https://github.com/ethereum/EIPs/issues/223",
    "version": 1
  }
}