{
  "contractName": "MockERc223Recipient",
  "abi": [
    {
      "anonymous": false,
      "inputs": [
        {
          "indexed": false,
          "internalType": "address",
          "name": "_from",
          "type": "address"
        },
        {
          "indexed": false,
          "internalType": "uint256",
          "name": "_value",
          "type": "uint256"
        },
        {
          "indexed": false,
          "internalType": "bytes",
          "name": "_data",
          "type": "bytes"
        }
      ],
      "name": "Received",
      "type": "event"
    },
    {
      "inputs": [
        {
          "internalType": "address",
          "name": "from",
          "type": "address"
        },
        {
          "internalType": "uint256",
          "name": "value",
          "type": "uint256"
        },
        {
          "internalType": "bytes",
          "name": "data",
          "type": "bytes"
        }
      ],
      "name": "tokenReceived",
      "outputs": [],
      "stateMutability": "nonpayable",
      "type": "function"
    }
  ],
  "bytecode": "0x608060405234801561001057600080fd5b5061019b806100206000396000f3fe608060405234801561001057600080fd5b506004361061002b5760003560e01c80638943ec0214610030575b600080fd5b61004361003e366004610088565b610045565b005b7f89e8e1406eb88cbdf591b5eeb74b6d10cbda6e6ff4190b83ed226e54a1e6c4fb8484848460405161007a949392919061011d565b60405180910390a150505050565b6000806000806060858703121561009e57600080fd5b84356001600160a01b03811681146100b557600080fd5b935060208501359250604085013567ffffffffffffffff808211156100d957600080fd5b818701915087601f8301126100ed57600080fd5b8135818111156100fc57600080fd5b88602082850101111561010e57600080fd5b95989497505060200194505050565b6001600160a01b0385168152602081018490526060604082018190528101829052818360808301376000818301608090810191909152601f909201601f19160101939250505056fea2646970667358221220e37869db9fa3175e181ebc618f970991fde38bf578e8651a7d8908e50ccdb89664736f6c634300080d0033",
  "immutableReferences": {},
  "source": "// SPDX-License-Identifier: MIT\npragma solidity >=0.8.0 <0.9.0;\n\nimport \"../interface/IERC223Recipient.sol\";\n\ncontract MockERc223Recipient is IERC223Recipient {\n  event Received(address _from, uint256 _value, bytes _data);\n\n  function tokenReceived(address from, uint256 value, bytes calldata data) external override {\n      // make something here ....\n      emit Received(from, value, data);\n  }\n}\n",
  "sourcePath": "/Users/chtian/Documents/01_work/01_develope/jcc/CCDAO/contract/contracts/mock/MockERC223Recipient.sol",
  "compiler": {
    "name": "solc",
    "version": "0.8.13+commit.abaa5c0e.Emscripten.clang"
  },
  "schemaVersion": "3.4.6",
  "updatedAt": "2022-04-07T17:22:06.058Z",
  "devdoc": {
    "kind": "dev",
    "methods": {},
    "version": 1
  },
  "userdoc": {
    "kind": "user",
    "methods": {},
    "version": 1
  }
}